{
  "contractName": "ArbitrageBot",
  "abi": [
    {
      "inputs": [
        {
          "internalType": "address",
          "name": "_addressProvider",
          "type": "address"
        }
      ],
      "stateMutability": "nonpayable",
      "type": "constructor"
    },
    {
      "anonymous": false,
      "inputs": [
        {
          "indexed": true,
          "internalType": "bytes32",
          "name": "role",
          "type": "bytes32"
        },
        {
          "indexed": true,
          "internalType": "bytes32",
          "name": "previousAdminRole",
          "type": "bytes32"
        },
        {
          "indexed": true,
          "internalType": "bytes32",
          "name": "newAdminRole",
          "type": "bytes32"
        }
      ],
      "name": "RoleAdminChanged",
      "type": "event"
    },
    {
      "anonymous": false,
      "inputs": [
        {
          "indexed": true,
          "internalType": "bytes32",
          "name": "role",
          "type": "bytes32"
        },
        {
          "indexed": true,
          "internalType": "address",
          "name": "account",
          "type": "address"
        },
        {
          "indexed": true,
          "internalType": "address",
          "name": "sender",
          "type": "address"
        }
      ],
      "name": "RoleGranted",
      "type": "event"
    },
    {
      "anonymous": false,
      "inputs": [
        {
          "indexed": true,
          "internalType": "bytes32",
          "name": "role",
          "type": "bytes32"
        },
        {
          "indexed": true,
          "internalType": "address",
          "name": "account",
          "type": "address"
        },
        {
          "indexed": true,
          "internalType": "address",
          "name": "sender",
          "type": "address"
        }
      ],
      "name": "RoleRevoked",
      "type": "event"
    },
    {
      "inputs": [],
      "name": "ADDRESSES_PROVIDER",
      "outputs": [
        {
          "internalType": "contract IPoolAddressesProvider",
          "name": "",
          "type": "address"
        }
      ],
      "stateMutability": "view",
      "type": "function",
      "constant": true
    },
    {
      "inputs": [],
      "name": "Admin_ROLE",
      "outputs": [
        {
          "internalType": "bytes32",
          "name": "",
          "type": "bytes32"
        }
      ],
      "stateMutability": "view",
      "type": "function",
      "constant": true
    },
    {
      "inputs": [],
      "name": "DEFAULT_ADMIN_ROLE",
      "outputs": [
        {
          "internalType": "bytes32",
          "name": "",
          "type": "bytes32"
        }
      ],
      "stateMutability": "view",
      "type": "function",
      "constant": true
    },
    {
      "inputs": [],
      "name": "Executer_ROLE",
      "outputs": [
        {
          "internalType": "bytes32",
          "name": "",
          "type": "bytes32"
        }
      ],
      "stateMutability": "view",
      "type": "function",
      "constant": true
    },
    {
      "inputs": [],
      "name": "POOL",
      "outputs": [
        {
          "internalType": "contract IPool",
          "name": "",
          "type": "address"
        }
      ],
      "stateMutability": "view",
      "type": "function",
      "constant": true
    },
    {
      "inputs": [
        {
          "internalType": "bytes32",
          "name": "role",
          "type": "bytes32"
        }
      ],
      "name": "getRoleAdmin",
      "outputs": [
        {
          "internalType": "bytes32",
          "name": "",
          "type": "bytes32"
        }
      ],
      "stateMutability": "view",
      "type": "function",
      "constant": true
    },
    {
      "inputs": [
        {
          "internalType": "bytes32",
          "name": "role",
          "type": "bytes32"
        },
        {
          "internalType": "address",
          "name": "account",
          "type": "address"
        }
      ],
      "name": "grantRole",
      "outputs": [],
      "stateMutability": "nonpayable",
      "type": "function"
    },
    {
      "inputs": [
        {
          "internalType": "bytes32",
          "name": "role",
          "type": "bytes32"
        },
        {
          "internalType": "address",
          "name": "account",
          "type": "address"
        }
      ],
      "name": "hasRole",
      "outputs": [
        {
          "internalType": "bool",
          "name": "",
          "type": "bool"
        }
      ],
      "stateMutability": "view",
      "type": "function",
      "constant": true
    },
    {
      "inputs": [
        {
          "internalType": "bytes32",
          "name": "role",
          "type": "bytes32"
        },
        {
          "internalType": "address",
          "name": "account",
          "type": "address"
        }
      ],
      "name": "renounceRole",
      "outputs": [],
      "stateMutability": "nonpayable",
      "type": "function"
    },
    {
      "inputs": [
        {
          "internalType": "bytes32",
          "name": "role",
          "type": "bytes32"
        },
        {
          "internalType": "address",
          "name": "account",
          "type": "address"
        }
      ],
      "name": "revokeRole",
      "outputs": [],
      "stateMutability": "nonpayable",
      "type": "function"
    },
    {
      "inputs": [
        {
          "internalType": "bytes4",
          "name": "interfaceId",
          "type": "bytes4"
        }
      ],
      "name": "supportsInterface",
      "outputs": [
        {
          "internalType": "bool",
          "name": "",
          "type": "bool"
        }
      ],
      "stateMutability": "view",
      "type": "function",
      "constant": true
    },
    {
      "stateMutability": "payable",
      "type": "receive",
      "payable": true
    },
    {
      "inputs": [
        {
          "internalType": "address",
          "name": "asset",
          "type": "address"
        },
        {
          "internalType": "uint256",
          "name": "amount",
          "type": "uint256"
        },
        {
          "internalType": "uint256",
          "name": "premium",
          "type": "uint256"
        },
        {
          "internalType": "address",
          "name": "initiator",
          "type": "address"
        },
        {
          "internalType": "bytes",
          "name": "params",
          "type": "bytes"
        }
      ],
      "name": "executeOperation",
      "outputs": [
        {
          "internalType": "bool",
          "name": "",
          "type": "bool"
        }
      ],
      "stateMutability": "nonpayable",
      "type": "function"
    },
    {
      "inputs": [
        {
          "internalType": "address",
          "name": "asset",
          "type": "address"
        },
        {
          "internalType": "uint256",
          "name": "_amount",
          "type": "uint256"
        },
        {
          "internalType": "address[3]",
          "name": "_trade1",
          "type": "address[3]"
        },
        {
          "internalType": "address[3]",
          "name": "_trade2",
          "type": "address[3]"
        },
        {
          "internalType": "address[3]",
          "name": "_trade3",
          "type": "address[3]"
        }
      ],
      "name": "TradeFlashloan",
      "outputs": [],
      "stateMutability": "nonpayable",
      "type": "function"
    },
    {
      "inputs": [
        {
          "internalType": "address[3]",
          "name": "_trade1",
          "type": "address[3]"
        },
        {
          "internalType": "address[3]",
          "name": "_trade2",
          "type": "address[3]"
        },
        {
          "internalType": "address[3]",
          "name": "_trade3",
          "type": "address[3]"
        },
        {
          "internalType": "uint256",
          "name": "amount",
          "type": "uint256"
        }
      ],
      "name": "TradeOwnCollateral",
      "outputs": [],
      "stateMutability": "nonpayable",
      "type": "function"
    },
    {
      "inputs": [
        {
          "internalType": "address",
          "name": "_tokenAddress",
          "type": "address"
        },
        {
          "internalType": "uint256",
          "name": "amount",
          "type": "uint256"
        }
      ],
      "name": "WithdrawTokens",
      "outputs": [],
      "stateMutability": "nonpayable",
      "type": "function"
    },
    {
      "inputs": [
        {
          "internalType": "uint256",
          "name": "amount",
          "type": "uint256"
        }
      ],
      "name": "WithdrawContractFunds",
      "outputs": [],
      "stateMutability": "nonpayable",
      "type": "function"
    }
  ],
  "bytecode": "0x60c06040523480156200001157600080fd5b50604051620034263803806200342683398101604081905262000034916200020a565b80806001600160a01b03166080816001600160a01b031681525050806001600160a01b031663026b1d5f6040518163ffffffff1660e01b8152600401602060405180830381865afa1580156200008e573d6000803e3d6000fd5b505050506040513d601f19601f82011682018060405250810190620000b491906200020a565b6001600160a01b031660a05250620000e26000735cb07f302f70d54c4c5e9e5fde0bc480097cc63162000169565b620001227f023328312ea58375b477ac6c326f3d748a0ccc11bf36e397098e3c399840961073307750f53616563a84ea843d3e256997a321544162000169565b620001627fe9e3832babc3e86b4159672c953a9406fb6d25f78e6668120efccd0ae921e0f4735cb07f302f70d54c4c5e9e5fde0bc480097cc63162000169565b506200023c565b6000828152602081815260408083206001600160a01b038516845290915290205460ff1662000206576000828152602081815260408083206001600160a01b03851684529091529020805460ff19166001179055620001c53390565b6001600160a01b0316816001600160a01b0316837f2f8788117e7eff1d82e926ec794901d17c78024a50270940304540a733656f0d60405160405180910390a45b5050565b6000602082840312156200021d57600080fd5b81516001600160a01b03811681146200023557600080fd5b9392505050565b60805160a0516131b662000270600039600081816102fe0152818161044b01526105ba0152600061018c01526131b66000f3fe6080604052600436106100f75760003560e01c80633e21ec231161008a57806391d148541161005957806391d1485414610320578063a217fddf14610340578063d547741f14610355578063fb2e66151461037557600080fd5b80633e21ec2314610278578063582b5723146102ac578063680f2e4f146102cc5780637535d246146102ec57600080fd5b80631b11d0ff116100c65780631b11d0ff146101e8578063248a9ca3146102085780632f2ff15d1461023857806336568abe1461025857600080fd5b806301ffc9a71461010357806304118819146101385780630542975c1461017a57806311a86efb146101c657600080fd5b366100fe57005b600080fd5b34801561010f57600080fd5b5061012361011e366004612b96565b610395565b60405190151581526020015b60405180910390f35b34801561014457600080fd5b5061016c7fe9e3832babc3e86b4159672c953a9406fb6d25f78e6668120efccd0ae921e0f481565b60405190815260200161012f565b34801561018657600080fd5b506101ae7f000000000000000000000000000000000000000000000000000000000000000081565b6040516001600160a01b03909116815260200161012f565b3480156101d257600080fd5b506101e66101e1366004612c81565b6103cc565b005b3480156101f457600080fd5b50610123610203366004612ce6565b6104c5565b34801561021457600080fd5b5061016c610223366004612d90565b60009081526020819052604090206001015490565b34801561024457600080fd5b506101e6610253366004612da9565b610637565b34801561026457600080fd5b506101e6610273366004612da9565b610662565b34801561028457600080fd5b5061016c7f023328312ea58375b477ac6c326f3d748a0ccc11bf36e397098e3c399840961081565b3480156102b857600080fd5b506101e66102c7366004612d90565b6106e5565b3480156102d857600080fd5b506101e66102e7366004612dd9565b61073d565b3480156102f857600080fd5b506101ae7f000000000000000000000000000000000000000000000000000000000000000081565b34801561032c57600080fd5b5061012361033b366004612da9565b6107df565b34801561034c57600080fd5b5061016c600081565b34801561036157600080fd5b506101e6610370366004612da9565b610808565b34801561038157600080fd5b506101e6610390366004612e05565b61082e565b60006001600160e01b03198216637965db0b60e01b14806103c657506301ffc9a760e01b6001600160e01b03198316145b92915050565b7f023328312ea58375b477ac6c326f3d748a0ccc11bf36e397098e3c39984096106103f7813361086d565b604080516020810190915260008082523091906104176002886003612ad5565b506104256005876003612ad5565b506104336008866003612ad5565b506040516310ac2ddf60e21b81526001600160a01b037f000000000000000000000000000000000000000000000000000000000000000016906342b0b77c906104889086908d908d9088908890600401612ead565b600060405180830381600087803b1580156104a257600080fd5b505af11580156104b6573d6000803e3d6000fd5b50505050505050505050505050565b604080516060810191829052600091829161057b9160029060039082845b81546001600160a01b031681526001909101906020018083116104e35750506040805160608101918290529350600592506003915082845b81546001600160a01b0316815260019091019060200180831161051b5750506040805160608101918290529350600892506003915082845b81546001600160a01b031681526001909101906020018083116105535750505050508a6108d1565b905061058781886123eb565b60006105938789612f0c565b60405163095ea7b360e01b81529091506001600160a01b038a169063095ea7b3906105e4907f0000000000000000000000000000000000000000000000000000000000000000908590600401612f24565b6020604051808303816000875af1158015610603573d6000803e3d6000fd5b505050506040513d601f19601f820116820180604052508101906106279190612f3d565b5060019998505050505050505050565b600082815260208190526040902060010154610653813361086d565b61065d838361244e565b505050565b6001600160a01b03811633146106d75760405162461bcd60e51b815260206004820152602f60248201527f416363657373436f6e74726f6c3a2063616e206f6e6c792072656e6f756e636560448201526e103937b632b9903337b91039b2b63360891b60648201526084015b60405180910390fd5b6106e182826124d2565b5050565b7fe9e3832babc3e86b4159672c953a9406fb6d25f78e6668120efccd0ae921e0f4610710813361086d565b604051339083156108fc029084906000818181858888f1935050505015801561065d573d6000803e3d6000fd5b7fe9e3832babc3e86b4159672c953a9406fb6d25f78e6668120efccd0ae921e0f4610768813361086d565b60405163a9059cbb60e01b81526001600160a01b0384169063a9059cbb906107969033908690600401612f24565b6020604051808303816000875af11580156107b5573d6000803e3d6000fd5b505050506040513d601f19601f820116820180604052508101906107d99190612f3d565b50505050565b6000918252602082815260408084206001600160a01b0393909316845291905290205460ff1690565b600082815260208190526040902060010154610824813361086d565b61065d83836124d2565b7f023328312ea58375b477ac6c326f3d748a0ccc11bf36e397098e3c3998409610610859813361086d565b610865858585856108d1565b505050505050565b61087782826107df565b6106e15761088f816001600160a01b03166014612537565b61089a836020612537565b6040516020016108ab929190612f5f565b60408051601f198184030181529082905262461bcd60e51b82526106ce91600401612fd4565b600080858160200201516001600160a01b031663ad5c46486040518163ffffffff1660e01b8152600401602060405180830381865afa158015610918573d6000803e3d6000fd5b505050506040513d601f19601f8201168201806040525081019061093c9190612ffd565b84519091506001600160a01b031661127c576001600160a01b03811686600160200201516001600160a01b03161415610bbe5760008311801561097f5750824710155b61099b5760405162461bcd60e51b81526004016106ce9061301a565b60408087015190516370a0823160e01b81523060048201526000916001600160a01b0316906370a0823190602401602060405180830381865afa1580156109e6573d6000803e3d6000fd5b505050506040513d601f19601f82011682018060405250810190610a0a9190613060565b9050610a238760005b60200201516040890151866126da565b60008188600260200201516040516370a0823160e01b81523060048201526001600160a01b03909116906370a0823190602401602060405180830381865afa158015610a73573d6000803e3d6000fd5b505050506040513d601f19601f82011682018060405250810190610a979190613060565b610aa19190613079565b602088015188516040516370a0823160e01b81523060048201529293506001600160a01b039091169163095ea7b3919083906370a0823190602401602060405180830381865afa158015610af9573d6000803e3d6000fd5b505050506040513d601f19601f82011682018060405250810190610b1d9190613060565b6040518363ffffffff1660e01b8152600401610b3a929190612f24565b6020604051808303816000875af1158015610b59573d6000803e3d6000fd5b505050506040513d601f19601f82011682018060405250810190610b7d9190612f3d565b5047610b9a8860005b60200201518960015b602002015184612857565b6000610ba68247613079565b9050610bb281886123eb565b94506123e39350505050565b6001600160a01b03811686600260200201516001600160a01b03161415610e8857600083118015610c5b575060208601516040516370a0823160e01b815230600482015284916001600160a01b0316906370a0823190602401602060405180830381865afa158015610c34573d6000803e3d6000fd5b505050506040513d601f19601f82011682018060405250810190610c589190613060565b10155b610c775760405162461bcd60e51b81526004016106ce9061301a565b602086015186516040516370a0823160e01b81523060048201526001600160a01b039092169163095ea7b3919083906370a0823190602401602060405180830381865afa158015610ccc573d6000803e3d6000fd5b505050506040513d601f19601f82011682018060405250810190610cf09190613060565b6040518363ffffffff1660e01b8152600401610d0d929190612f24565b6020604051808303816000875af1158015610d2c573d6000803e3d6000fd5b505050506040513d601f19601f82011682018060405250810190610d509190612f3d565b5047610d6c8760005b6020020151886001602002015186612857565b6000610d788247613079565b9050600087600260200201516040516370a0823160e01b81523060048201526001600160a01b03909116906370a0823190602401602060405180830381865afa158015610dc9573d6000803e3d6000fd5b505050506040513d601f19601f82011682018060405250810190610ded9190613060565b9050610e0a8860005b60200201518960025b6020020151846126da565b60008189600260200201516040516370a0823160e01b81523060048201526001600160a01b03909116906370a0823190602401602060405180830381865afa158015610e5a573d6000803e3d6000fd5b505050506040513d601f19601f82011682018060405250810190610e7e9190613060565b610ba69190613079565b600083118015610f04575060208601516040516370a0823160e01b815230600482015284916001600160a01b0316906370a0823190602401602060405180830381865afa158015610edd573d6000803e3d6000fd5b505050506040513d601f19601f82011682018060405250810190610f019190613060565b10155b610f205760405162461bcd60e51b81526004016106ce9061301a565b602086015186516040516370a0823160e01b81523060048201526001600160a01b039092169163095ea7b3919083906370a0823190602401602060405180830381865afa158015610f75573d6000803e3d6000fd5b505050506040513d601f19601f82011682018060405250810190610f999190613060565b6040518363ffffffff1660e01b8152600401610fb6929190612f24565b6020604051808303816000875af1158015610fd5573d6000803e3d6000fd5b505050506040513d601f19601f82011682018060405250810190610ff99190612f3d565b5060408087015190516370a0823160e01b81523060048201526000916001600160a01b0316906370a0823190602401602060405180830381865afa158015611045573d6000803e3d6000fd5b505050506040513d601f19601f820116820180604052508101906110699190613060565b905061108d8760005b602002015188600160200201518960026020020151876129d5565b60008188600260200201516040516370a0823160e01b81523060048201526001600160a01b03909116906370a0823190602401602060405180830381865afa1580156110dd573d6000803e3d6000fd5b505050506040513d601f19601f820116820180604052508101906111019190613060565b61110b9190613079565b602088015188516040516370a0823160e01b81523060048201529293506001600160a01b039091169163095ea7b3919083906370a0823190602401602060405180830381865afa158015611163573d6000803e3d6000fd5b505050506040513d601f19601f820116820180604052508101906111879190613060565b6040518363ffffffff1660e01b81526004016111a4929190612f24565b6020604051808303816000875af11580156111c3573d6000803e3d6000fd5b505050506040513d601f19601f820116820180604052508101906111e79190612f3d565b5060408088015190516370a0823160e01b81523060048201526000916001600160a01b0316906370a0823190602401602060405180830381865afa158015611233573d6000803e3d6000fd5b505050506040513d601f19601f820116820180604052508101906112579190613060565b9050610e0a8860005b602002015189600160200201518a60025b6020020151856129d5565b6001600160a01b03811686600160200201516001600160a01b03161480156112bd57506001600160a01b03811685600160200201516001600160a01b031614155b80156112e257506001600160a01b03811684600160200201516001600160a01b031614155b156116f7576000831180156112f75750824710155b6113135760405162461bcd60e51b81526004016106ce9061301a565b60408087015190516370a0823160e01b81523060048201526000916001600160a01b0316906370a0823190602401602060405180830381865afa15801561135e573d6000803e3d6000fd5b505050506040513d601f19601f820116820180604052508101906113829190613060565b905061138f876000610a13565b60008188600260200201516040516370a0823160e01b81523060048201526001600160a01b03909116906370a0823190602401602060405180830381865afa1580156113df573d6000803e3d6000fd5b505050506040513d601f19601f820116820180604052508101906114039190613060565b61140d9190613079565b602088015188516040516370a0823160e01b81523060048201529293506001600160a01b039091169163095ea7b3919083906370a0823190602401602060405180830381865afa158015611465573d6000803e3d6000fd5b505050506040513d601f19601f820116820180604052508101906114899190613060565b6040518363ffffffff1660e01b81526004016114a6929190612f24565b6020604051808303816000875af11580156114c5573d6000803e3d6000fd5b505050506040513d601f19601f820116820180604052508101906114e99190612f3d565b5060408088015190516370a0823160e01b81523060048201526000916001600160a01b0316906370a0823190602401602060405180830381865afa158015611535573d6000803e3d6000fd5b505050506040513d601f19601f820116820180604052508101906115599190613060565b9050611566886000611260565b60008189600260200201516040516370a0823160e01b81523060048201526001600160a01b03909116906370a0823190602401602060405180830381865afa1580156115b6573d6000803e3d6000fd5b505050506040513d601f19601f820116820180604052508101906115da9190613060565b6115e49190613079565b602089015189516040516370a0823160e01b81523060048201529293506001600160a01b039091169163095ea7b3919083906370a0823190602401602060405180830381865afa15801561163c573d6000803e3d6000fd5b505050506040513d601f19601f820116820180604052508101906116609190613060565b6040518363ffffffff1660e01b815260040161167d929190612f24565b6020604051808303816000875af115801561169c573d6000803e3d6000fd5b505050506040513d601f19601f820116820180604052508101906116c09190612f3d565b50875147906116d1908a6001610b8f565b60006116dd8247613079565b90506116e9818a6123eb565b96506123e395505050505050565b6001600160a01b03811686600160200201516001600160a01b03161415801561173857506001600160a01b03811685600160200201516001600160a01b0316145b801561175d57506001600160a01b03811684600160200201516001600160a01b031614155b15611bcc576000831180156117de575060208601516040516370a0823160e01b815230600482015284916001600160a01b0316906370a0823190602401602060405180830381865afa1580156117b7573d6000803e3d6000fd5b505050506040513d601f19601f820116820180604052508101906117db9190613060565b10155b6117fa5760405162461bcd60e51b81526004016106ce9061301a565b602086015186516040516370a0823160e01b81523060048201526001600160a01b039092169163095ea7b3919083906370a0823190602401602060405180830381865afa15801561184f573d6000803e3d6000fd5b505050506040513d601f19601f820116820180604052508101906118739190613060565b6040518363ffffffff1660e01b8152600401611890929190612f24565b6020604051808303816000875af11580156118af573d6000803e3d6000fd5b505050506040513d601f19601f820116820180604052508101906118d39190612f3d565b50476118e0876000610d59565b60006118ec8247613079565b9050600087600260200201516040516370a0823160e01b81523060048201526001600160a01b03909116906370a0823190602401602060405180830381865afa15801561193d573d6000803e3d6000fd5b505050506040513d601f19601f820116820180604052508101906119619190613060565b905061196e886000610df6565b60008189600260200201516040516370a0823160e01b81523060048201526001600160a01b03909116906370a0823190602401602060405180830381865afa1580156119be573d6000803e3d6000fd5b505050506040513d601f19601f820116820180604052508101906119e29190613060565b6119ec9190613079565b602089015189516040516370a0823160e01b81523060048201529293506001600160a01b039091169163095ea7b3919083906370a0823190602401602060405180830381865afa158015611a44573d6000803e3d6000fd5b505050506040513d601f19601f82011682018060405250810190611a689190613060565b6040518363ffffffff1660e01b8152600401611a85929190612f24565b6020604051808303816000875af1158015611aa4573d6000803e3d6000fd5b505050506040513d601f19601f82011682018060405250810190611ac89190612f3d565b5060408089015190516370a0823160e01b81523060048201526000916001600160a01b0316906370a0823190602401602060405180830381865afa158015611b14573d6000803e3d6000fd5b505050506040513d601f19601f82011682018060405250810190611b389190613060565b895160208b0151919250611b4e918b6002611271565b6000818a600260200201516040516370a0823160e01b81523060048201526001600160a01b03909116906370a0823190602401602060405180830381865afa158015611b9e573d6000803e3d6000fd5b505050506040513d601f19601f82011682018060405250810190611bc29190613060565b6116dd9190613079565b6001600160a01b03811686600160200201516001600160a01b031614158015611c0e57506001600160a01b03811685600160200201516001600160a01b031614155b8015611c3257506001600160a01b03811684600160200201516001600160a01b0316145b1561201e57600083118015611cb3575060208601516040516370a0823160e01b815230600482015284916001600160a01b0316906370a0823190602401602060405180830381865afa158015611c8c573d6000803e3d6000fd5b505050506040513d601f19601f82011682018060405250810190611cb09190613060565b10155b611ccf5760405162461bcd60e51b81526004016106ce9061301a565b602086015186516040516370a0823160e01b81523060048201526001600160a01b039092169163095ea7b3919083906370a0823190602401602060405180830381865afa158015611d24573d6000803e3d6000fd5b505050506040513d601f19601f82011682018060405250810190611d489190613060565b6040518363ffffffff1660e01b8152600401611d65929190612f24565b6020604051808303816000875af1158015611d84573d6000803e3d6000fd5b505050506040513d601f19601f82011682018060405250810190611da89190612f3d565b5060408087015190516370a0823160e01b81523060048201526000916001600160a01b0316906370a0823190602401602060405180830381865afa158015611df4573d6000803e3d6000fd5b505050506040513d601f19601f82011682018060405250810190611e189190613060565b9050611e25876000611072565b60008188600260200201516040516370a0823160e01b81523060048201526001600160a01b03909116906370a0823190602401602060405180830381865afa158015611e75573d6000803e3d6000fd5b505050506040513d601f19601f82011682018060405250810190611e999190613060565b611ea39190613079565b602088015188516040516370a0823160e01b81523060048201529293506001600160a01b039091169163095ea7b3919083906370a0823190602401602060405180830381865afa158015611efb573d6000803e3d6000fd5b505050506040513d601f19601f82011682018060405250810190611f1f9190613060565b6040518363ffffffff1660e01b8152600401611f3c929190612f24565b6020604051808303816000875af1158015611f5b573d6000803e3d6000fd5b505050506040513d601f19601f82011682018060405250810190611f7f9190612f3d565b5047611f8c886000610b86565b6000611f988247613079565b9050600088600260200201516040516370a0823160e01b81523060048201526001600160a01b03909116906370a0823190602401602060405180830381865afa158015611fe9573d6000803e3d6000fd5b505050506040513d601f19601f8201168201806040525081019061200d9190613060565b8951909150611b4e908a6002610dff565b60008311801561209a575060208601516040516370a0823160e01b815230600482015284916001600160a01b0316906370a0823190602401602060405180830381865afa158015612073573d6000803e3d6000fd5b505050506040513d601f19601f820116820180604052508101906120979190613060565b10155b6120b65760405162461bcd60e51b81526004016106ce9061301a565b602086015186516040516370a0823160e01b81523060048201526001600160a01b039092169163095ea7b3919083906370a0823190602401602060405180830381865afa15801561210b573d6000803e3d6000fd5b505050506040513d601f19601f8201168201806040525081019061212f9190613060565b6040518363ffffffff1660e01b815260040161214c929190612f24565b6020604051808303816000875af115801561216b573d6000803e3d6000fd5b505050506040513d601f19601f8201168201806040525081019061218f9190612f3d565b5060408087015190516370a0823160e01b81523060048201526000916001600160a01b0316906370a0823190602401602060405180830381865afa1580156121db573d6000803e3d6000fd5b505050506040513d601f19601f820116820180604052508101906121ff9190613060565b905061220c876000611072565b60008188600260200201516040516370a0823160e01b81523060048201526001600160a01b03909116906370a0823190602401602060405180830381865afa15801561225c573d6000803e3d6000fd5b505050506040513d601f19601f820116820180604052508101906122809190613060565b61228a9190613079565b602088015188516040516370a0823160e01b81523060048201529293506001600160a01b039091169163095ea7b3919083906370a0823190602401602060405180830381865afa1580156122e2573d6000803e3d6000fd5b505050506040513d601f19601f820116820180604052508101906123069190613060565b6040518363ffffffff1660e01b8152600401612323929190612f24565b6020604051808303816000875af1158015612342573d6000803e3d6000fd5b505050506040513d601f19601f820116820180604052508101906123669190612f3d565b5060408088015190516370a0823160e01b81523060048201526000916001600160a01b0316906370a0823190602401602060405180830381865afa1580156123b2573d6000803e3d6000fd5b505050506040513d601f19601f820116820180604052508101906123d69190613060565b905061196e886000611260565b949350505050565b808210156106e15760405162461bcd60e51b815260206004820152602a60248201527f556e61626c6520746f204561726e2070726f6669742066726f6d2074686520746044820152693930b739b0b1ba34b7b760b11b60648201526084016106ce565b61245882826107df565b6106e1576000828152602081815260408083206001600160a01b03851684529091529020805460ff1916600117905561248e3390565b6001600160a01b0316816001600160a01b0316837f2f8788117e7eff1d82e926ec794901d17c78024a50270940304540a733656f0d60405160405180910390a45050565b6124dc82826107df565b156106e1576000828152602081815260408083206001600160a01b0385168085529252808320805460ff1916905551339285917ff6391f5c32d9c69d2a47ea670b442974b53935d1edc7fd64eb21e047a839171b9190a45050565b60606000612546836002613090565b612551906002612f0c565b67ffffffffffffffff81111561256957612569612be8565b6040519080825280601f01601f191660200182016040528015612593576020820181803683370190505b509050600360fc1b816000815181106125ae576125ae612fe7565b60200101906001600160f81b031916908160001a905350600f60fb1b816001815181106125dd576125dd612fe7565b60200101906001600160f81b031916908160001a9053506000612601846002613090565b61260c906001612f0c565b90505b6001811115612684576f181899199a1a9b1b9c1cb0b131b232b360811b85600f166010811061264057612640612fe7565b1a60f81b82828151811061265657612656612fe7565b60200101906001600160f81b031916908160001a90535060049490941c9361267d816130af565b905061260f565b5083156126d35760405162461bcd60e51b815260206004820181905260248201527f537472696e67733a20686578206c656e67746820696e73756666696369656e7460448201526064016106ce565b9392505050565b604080516002808252606082018352909160208301908036833750508151612709926001925060200190612b2d565b50826001600160a01b031663ad5c46486040518163ffffffff1660e01b8152600401602060405180830381865afa158015612748573d6000803e3d6000fd5b505050506040513d601f19601f8201168201806040525081019061276c9190612ffd565b600160008154811061278057612780612fe7565b9060005260206000200160006101000a8154816001600160a01b0302191690836001600160a01b0316021790555081600180815481106127c2576127c2612fe7565b6000918252602082200180546001600160a01b0319166001600160a01b039384161790559084169063b6f9de959083906001306128014261012c612f0c565b6040518663ffffffff1660e01b8152600401612820949392919061310f565b6000604051808303818588803b15801561283957600080fd5b505af115801561284d573d6000803e3d6000fd5b5050505050505050565b604080516002808252606082018352909160208301908036833750508151612886926001925060200190612b2d565b5081600160008154811061289c5761289c612fe7565b9060005260206000200160006101000a8154816001600160a01b0302191690836001600160a01b03160217905550826001600160a01b031663ad5c46486040518163ffffffff1660e01b8152600401602060405180830381865afa158015612908573d6000803e3d6000fd5b505050506040513d601f19601f8201168201806040525081019061292c9190612ffd565b6001808154811061293f5761293f612fe7565b6000918252602082200180546001600160a01b0319166001600160a01b039384161790559084169063791ac94790839060013061297e4261012c612f0c565b6040518663ffffffff1660e01b815260040161299e959493929190613144565b600060405180830381600087803b1580156129b857600080fd5b505af11580156129cc573d6000803e3d6000fd5b50505050505050565b604080516002808252606082018352909160208301908036833750508151612a04926001925060200190612b2d565b50826001600081548110612a1a57612a1a612fe7565b9060005260206000200160006101000a8154816001600160a01b0302191690836001600160a01b031602179055508160018081548110612a5c57612a5c612fe7565b6000918252602082200180546001600160a01b0319166001600160a01b0393841617905590851690635c11d795908390600130612a9b4261012c612f0c565b6040518663ffffffff1660e01b8152600401612abb959493929190613144565b600060405180830381600087803b15801561283957600080fd5b8260038101928215612b1d579160200282015b82811115612b1d57825182546001600160a01b0319166001600160a01b03909116178255602090920191600190910190612ae8565b50612b29929150612b81565b5090565b828054828255906000526020600020908101928215612b1d5791602002820182811115612b1d57825182546001600160a01b0319166001600160a01b03909116178255602090920191600190910190612ae8565b5b80821115612b295760008155600101612b82565b600060208284031215612ba857600080fd5b81356001600160e01b0319811681146126d357600080fd5b6001600160a01b0381168114612bd557600080fd5b50565b8035612be381612bc0565b919050565b634e487b7160e01b600052604160045260246000fd5b600082601f830112612c0f57600080fd5b6040516060810181811067ffffffffffffffff82111715612c4057634e487b7160e01b600052604160045260246000fd5b604052806060840185811115612c5557600080fd5b845b81811015612c7657612c6881612bd8565b835260209283019201612c57565b509195945050505050565b60008060008060006101608688031215612c9a57600080fd5b8535612ca581612bc0565b945060208601359350612cbb8760408801612bfe565b9250612cca8760a08801612bfe565b9150612cda876101008801612bfe565b90509295509295909350565b60008060008060008060a08789031215612cff57600080fd5b8635612d0a81612bc0565b955060208701359450604087013593506060870135612d2881612bc0565b9250608087013567ffffffffffffffff80821115612d4557600080fd5b818901915089601f830112612d5957600080fd5b813581811115612d6857600080fd5b8a6020828501011115612d7a57600080fd5b6020830194508093505050509295509295509295565b600060208284031215612da257600080fd5b5035919050565b60008060408385031215612dbc57600080fd5b823591506020830135612dce81612bc0565b809150509250929050565b60008060408385031215612dec57600080fd5b8235612df781612bc0565b946020939093013593505050565b6000806000806101408587031215612e1c57600080fd5b612e268686612bfe565b9350612e358660608701612bfe565b9250612e448660c08701612bfe565b939692955092936101200135925050565b60005b83811015612e70578181015183820152602001612e58565b838111156107d95750506000910152565b60008151808452612e99816020860160208601612e55565b601f01601f19169290920160200192915050565b6001600160a01b038681168252851660208201526040810184905260a060608201819052600090612ee090830185612e81565b905061ffff831660808301529695505050505050565b634e487b7160e01b600052601160045260246000fd5b60008219821115612f1f57612f1f612ef6565b500190565b6001600160a01b03929092168252602082015260400190565b600060208284031215612f4f57600080fd5b815180151581146126d357600080fd5b7f416363657373436f6e74726f6c3a206163636f756e7420000000000000000000815260008351612f97816017850160208801612e55565b7001034b99036b4b9b9b4b733903937b6329607d1b6017918401918201528351612fc8816028840160208801612e55565b01602801949350505050565b6020815260006126d36020830184612e81565b634e487b7160e01b600052603260045260246000fd5b60006020828403121561300f57600080fd5b81516126d381612bc0565b60208082526026908201527f696e73756666696369656e742066756e647320666f7220746865207472616e7360408201526530b1ba34b7b760d11b606082015260800190565b60006020828403121561307257600080fd5b5051919050565b60008282101561308b5761308b612ef6565b500390565b60008160001904831182151516156130aa576130aa612ef6565b500290565b6000816130be576130be612ef6565b506000190190565b6000815480845260208085019450836000528060002060005b838110156131045781546001600160a01b0316875295820195600191820191016130df565b509495945050505050565b84815260806020820152600061312860808301866130c6565b6001600160a01b03949094166040830152506060015292915050565b85815284602082015260a06040820152600061316360a08301866130c6565b6001600160a01b039490941660608301525060800152939250505056fea26469706673582212203ca1987e28e16d4c76deabb9c718fc06904098089bfd7622436717c6cf97b49164736f6c634300080a0033",
  "immutableReferences": {
    "92": [
      {
        "length": 32,
        "start": 396
      }
    ],
    "96": [
      {
        "length": 32,
        "start": 766
      },
      {
        "length": 32,
        "start": 1099
      },
      {
        "length": 32,
        "start": 1466
      }
    ]
  },
  "source": "// SPDX-License-Identifier: MIT\r\npragma solidity 0.8.10;\r\n\r\nimport \"./interfaces/IUniswapV2Router02.sol\";\r\nimport {AccessControl} from \"@openzeppelin/contracts/access/AccessControl.sol\";\r\nimport {FlashLoanSimpleReceiverBase} from \"@aave/core-v3/contracts/flashloan/base/FlashLoanSimpleReceiverBase.sol\";\r\nimport {IPoolAddressesProvider} from \"@aave/core-v3/contracts/interfaces/IPoolAddressesProvider.sol\";\r\nimport {IERC20} from \"@aave/core-v3/contracts/dependencies/openzeppelin/contracts/IERC20.sol\";\r\n\r\ncontract ArbitrageBot is FlashLoanSimpleReceiverBase, AccessControl {\r\n    address[] path;\r\n\r\n    address[3] Trade1;\r\n    address[3] Trade2;\r\n    address[3] Trade3;\r\n\r\n    bytes32 public constant Executer_ROLE = keccak256(\"Executer_ROLE\");\r\n    bytes32 public constant Admin_ROLE = keccak256(\"Admin_ROLE\");\r\n\r\n    constructor(address _addressProvider)\r\n        FlashLoanSimpleReceiverBase(IPoolAddressesProvider(_addressProvider))\r\n    {\r\n        _grantRole(\r\n            DEFAULT_ADMIN_ROLE,\r\n            0x5cB07F302F70D54c4C5e9E5FdE0BC480097Cc631\r\n        );\r\n        _grantRole(Executer_ROLE, 0x307750F53616563a84ea843D3E256997a3215441);\r\n        _grantRole(Admin_ROLE, 0x5cB07F302F70D54c4C5e9E5FdE0BC480097Cc631);\r\n    }\r\n\r\n    function Checktrade(uint256 a, uint256 b) internal pure {\r\n        require(a >= b, \"Unable to Earn profit from the transaction\");\r\n    }\r\n\r\n    function executeOperation(\r\n        address asset,\r\n        uint256 amount,\r\n        uint256 premium,\r\n        address initiator,\r\n        bytes calldata params\r\n    ) external override returns (bool) {\r\n        uint256 AquiredToken = TradeFunction(Trade1, Trade2, Trade3, amount);\r\n        Checktrade(AquiredToken, amount);\r\n        uint256 amountOwed = amount + premium;\r\n        IERC20(asset).approve(address(POOL), amountOwed);\r\n        return true;\r\n    }\r\n\r\n    function TradeFlashloan(\r\n        address asset,\r\n        uint256 _amount,\r\n        address[3] memory _trade1,\r\n        address[3] memory _trade2,\r\n        address[3] memory _trade3\r\n    ) public onlyRole(Executer_ROLE) {\r\n        address receiverAddress = address(this);\r\n        bytes memory params = \"\";\r\n        uint16 referralCode = 0;\r\n        Trade1 = _trade1;\r\n        Trade2 = _trade2;\r\n        Trade3 = _trade3;\r\n        POOL.flashLoanSimple(\r\n            receiverAddress,\r\n            asset,\r\n            _amount,\r\n            params,\r\n            referralCode\r\n        );\r\n    }\r\n\r\n    function TradeOwnCollateral(\r\n        address[3] memory _trade1,\r\n        address[3] memory _trade2,\r\n        address[3] memory _trade3,\r\n        uint256 amount\r\n    ) public onlyRole(Executer_ROLE) {\r\n        TradeFunction(_trade1, _trade2, _trade3, amount);\r\n    }\r\n\r\n    function TradeFunction(\r\n        address[3] memory trade1,\r\n        address[3] memory trade2,\r\n        address[3] memory trade3,\r\n        uint256 amount\r\n    ) internal returns (uint256) {\r\n        address WETH = IUniswapV2Router01(trade1[0]).WETH();\r\n        if (trade3[0] == address(0)) {\r\n            if (trade1[1] == WETH) {\r\n                require(\r\n                    amount > 0 && address(this).balance >= amount,\r\n                    \"insufficient funds for the transaction\"\r\n                );\r\n\r\n                //trade1\r\n                uint256 Blanance_before = IERC20(trade1[2]).balanceOf(\r\n                    address(this)\r\n                );\r\n                swapETHtoToken(trade1[0], trade1[2], amount);\r\n                uint256 Trade_AO = IERC20(trade1[2]).balanceOf(address(this)) -\r\n                    Blanance_before;\r\n                //trade2\r\n                IERC20(trade2[1]).approve(\r\n                    trade2[0],\r\n                    IERC20(trade2[1]).balanceOf(address(this))\r\n                );\r\n                uint256 Blanance_before2 = address(this).balance;\r\n                swapTokenToEth(trade2[0], trade2[1], Trade_AO);\r\n\r\n                uint256 Trade_AO2 = address(this).balance - Blanance_before2;\r\n\r\n                Checktrade(Trade_AO2, (amount));\r\n                return Trade_AO2;\r\n            } else if (trade1[2] == WETH) {\r\n                require(\r\n                    amount > 0 &&\r\n                        IERC20(trade1[1]).balanceOf(address(this)) >= amount,\r\n                    \"insufficient funds for the transaction\"\r\n                );\r\n                //trade1\r\n                IERC20(trade1[1]).approve(\r\n                    trade1[0],\r\n                    IERC20(trade1[1]).balanceOf(address(this))\r\n                );\r\n                uint256 Balance_before = address(this).balance;\r\n                swapTokenToEth(trade1[0], trade1[1], amount);\r\n                uint256 Trade_AO = address(this).balance - Balance_before;\r\n\r\n                //trade2\r\n                uint256 Balance_before2 = IERC20(trade2[2]).balanceOf(\r\n                    address(this)\r\n                );\r\n                swapETHtoToken(trade2[0], trade2[2], Trade_AO);\r\n                uint256 Trade_AO2 = IERC20(trade2[2]).balanceOf(address(this)) -\r\n                    Balance_before2;\r\n                Checktrade(Trade_AO2, (amount));\r\n                return Trade_AO2;\r\n            } else {\r\n                require(\r\n                    amount > 0 &&\r\n                        IERC20(trade1[1]).balanceOf(address(this)) >= amount,\r\n                    \"insufficient funds for the transaction\"\r\n                );\r\n                //trade1\r\n                IERC20(trade1[1]).approve(\r\n                    trade1[0],\r\n                    IERC20(trade1[1]).balanceOf(address(this))\r\n                );\r\n                uint256 Balance_before = IERC20(trade1[2]).balanceOf(\r\n                    address(this)\r\n                );\r\n                swapTokenForToken(trade1[0], trade1[1], trade1[2], amount);\r\n                uint256 Trade_AO = IERC20(trade1[2]).balanceOf(address(this)) -\r\n                    Balance_before;\r\n                //trade2\r\n                IERC20(trade2[1]).approve(\r\n                    trade2[0],\r\n                    IERC20(trade2[1]).balanceOf(address(this))\r\n                );\r\n                uint256 Balance_before2 = IERC20(trade2[2]).balanceOf(\r\n                    address(this)\r\n                );\r\n                swapTokenForToken(trade2[0], trade2[1], trade2[2], Trade_AO);\r\n                uint256 Trade_AO2 = IERC20(trade2[2]).balanceOf(address(this)) -\r\n                    Balance_before2;\r\n                Checktrade(Trade_AO2, (amount));\r\n                return Trade_AO2;\r\n            }\r\n        } else {\r\n            if (trade1[1] == WETH && trade2[1] != WETH && trade3[1] != WETH) {\r\n                require(\r\n                    amount > 0 && address(this).balance >= amount,\r\n                    \"insufficient funds for the transaction\"\r\n                );\r\n                //trade1\r\n                uint256 Balance_before = IERC20(trade1[2]).balanceOf(\r\n                    address(this)\r\n                );\r\n                swapETHtoToken(trade1[0], trade1[2], amount);\r\n                uint256 Trade_AO = IERC20(trade1[2]).balanceOf(address(this)) -\r\n                    Balance_before;\r\n                //trade2\r\n                IERC20(trade2[1]).approve(\r\n                    trade2[0],\r\n                    IERC20(trade2[1]).balanceOf(address(this))\r\n                );\r\n                uint256 Balance_before2 = IERC20(trade2[2]).balanceOf(\r\n                    address(this)\r\n                );\r\n                swapTokenForToken(trade2[0], trade2[1], trade2[2], Trade_AO);\r\n                uint256 Trade_AO2 = IERC20(trade2[2]).balanceOf(address(this)) -\r\n                    Balance_before2;\r\n\r\n                //trade3\r\n                IERC20(trade3[1]).approve(\r\n                    trade3[0],\r\n                    IERC20(trade3[1]).balanceOf(address(this))\r\n                );\r\n                uint256 Balance_before3 = address(this).balance;\r\n                swapTokenToEth(trade3[0], trade3[1], Trade_AO2);\r\n                uint256 Trade_AO3 = address(this).balance - Balance_before3;\r\n                Checktrade(Trade_AO3, (amount));\r\n                return Trade_AO3;\r\n            } else if (\r\n                trade1[1] != WETH && trade2[1] == WETH && trade3[1] != WETH\r\n            ) {\r\n                require(\r\n                    amount > 0 &&\r\n                        IERC20(trade1[1]).balanceOf(address(this)) >= amount,\r\n                    \"insufficient funds for the transaction\"\r\n                );\r\n                //trade1\r\n                IERC20(trade1[1]).approve(\r\n                    trade1[0],\r\n                    IERC20(trade1[1]).balanceOf(address(this))\r\n                );\r\n                uint256 Balance_before = address(this).balance;\r\n                swapTokenToEth(trade1[0], trade1[1], amount);\r\n                uint256 Trade_AO = address(this).balance - Balance_before;\r\n                //trade2\r\n                uint256 Balance_before2 = IERC20(trade2[2]).balanceOf(\r\n                    address(this)\r\n                );\r\n                swapETHtoToken(trade2[0], trade2[2], Trade_AO);\r\n                uint256 Trade_AO2 = IERC20(trade2[2]).balanceOf(address(this)) -\r\n                    Balance_before2;\r\n                //trade3\r\n                IERC20(trade3[1]).approve(\r\n                    trade3[0],\r\n                    IERC20(trade3[1]).balanceOf(address(this))\r\n                );\r\n                uint256 Balance_before3 = IERC20(trade3[2]).balanceOf(\r\n                    address(this)\r\n                );\r\n                swapTokenForToken(trade3[0], trade3[1], trade3[2], Trade_AO2);\r\n                uint256 Trade_AO3 = IERC20(trade3[2]).balanceOf(address(this)) -\r\n                    Balance_before3;\r\n                Checktrade(Trade_AO3, (amount));\r\n                return Trade_AO3;\r\n            } else if (\r\n                trade1[1] != WETH && trade2[1] != WETH && trade3[1] == WETH\r\n            ) {\r\n                require(\r\n                    amount > 0 &&\r\n                        IERC20(trade1[1]).balanceOf(address(this)) >= amount,\r\n                    \"insufficient funds for the transaction\"\r\n                );\r\n                //trade1\r\n                IERC20(trade1[1]).approve(\r\n                    trade1[0],\r\n                    IERC20(trade1[1]).balanceOf(address(this))\r\n                );\r\n                uint256 Balance_before = IERC20(trade1[2]).balanceOf(\r\n                    address(this)\r\n                );\r\n                swapTokenForToken(trade1[0], trade1[1], trade1[2], amount);\r\n                uint256 Trade_AO = IERC20(trade1[2]).balanceOf(address(this)) -\r\n                    Balance_before;\r\n                //trade2\r\n                IERC20(trade2[1]).approve(\r\n                    trade2[0],\r\n                    IERC20(trade2[1]).balanceOf(address(this))\r\n                );\r\n                uint256 Balance_before2 = address(this).balance;\r\n                swapTokenToEth(trade2[0], trade2[1], Trade_AO);\r\n                uint256 Trade_AO2 = address(this).balance - Balance_before2;\r\n                //trade3\r\n                uint256 Balance_before3 = IERC20(trade3[2]).balanceOf(\r\n                    address(this)\r\n                );\r\n                swapETHtoToken(trade3[0], trade3[2], Trade_AO2);\r\n                uint256 Trade_AO3 = IERC20(trade3[2]).balanceOf(address(this)) -\r\n                    Balance_before3;\r\n                Checktrade(Trade_AO3, (amount));\r\n                return Trade_AO3;\r\n            } else {\r\n                require(\r\n                    amount > 0 &&\r\n                        IERC20(trade1[1]).balanceOf(address(this)) >= amount,\r\n                    \"insufficient funds for the transaction\"\r\n                );\r\n                //trade1\r\n                IERC20(trade1[1]).approve(\r\n                    trade1[0],\r\n                    IERC20(trade1[1]).balanceOf(address(this))\r\n                );\r\n                uint256 Balance_before = IERC20(trade1[2]).balanceOf(\r\n                    address(this)\r\n                );\r\n                swapTokenForToken(trade1[0], trade1[1], trade1[2], amount);\r\n                uint256 Trade_AO = IERC20(trade1[2]).balanceOf(address(this)) -\r\n                    Balance_before;\r\n                //trade2\r\n                IERC20(trade2[1]).approve(\r\n                    trade2[0],\r\n                    IERC20(trade2[1]).balanceOf(address(this))\r\n                );\r\n                uint256 Balance_before2 = IERC20(trade2[2]).balanceOf(\r\n                    address(this)\r\n                );\r\n                swapTokenForToken(trade2[0], trade2[1], trade2[2], Trade_AO);\r\n                uint256 Trade_AO2 = IERC20(trade2[2]).balanceOf(address(this)) -\r\n                    Balance_before2;\r\n                //trade3\r\n                IERC20(trade3[1]).approve(\r\n                    trade3[0],\r\n                    IERC20(trade3[1]).balanceOf(address(this))\r\n                );\r\n                uint256 Balance_before3 = IERC20(trade3[2]).balanceOf(\r\n                    address(this)\r\n                );\r\n                swapTokenForToken(trade3[0], trade3[1], trade3[2], Trade_AO2);\r\n                uint256 Trade_AO3 = IERC20(trade3[2]).balanceOf(address(this)) -\r\n                    Balance_before3;\r\n                Checktrade(Trade_AO3, (amount));\r\n                return Trade_AO3;\r\n            }\r\n        }\r\n    }\r\n\r\n    function swapTokenForToken(\r\n        address router,\r\n        address tokenA,\r\n        address tokenB,\r\n        uint256 amount\r\n    ) internal {\r\n        path = new address[](2);\r\n        path[0] = tokenA;\r\n        path[1] = tokenB;\r\n\r\n        IUniswapV2Router02(router)\r\n            .swapExactTokensForTokensSupportingFeeOnTransferTokens(\r\n                amount,\r\n                0,\r\n                path,\r\n                address(this),\r\n                block.timestamp + 300 seconds\r\n            );\r\n    }\r\n\r\n    function swapETHtoToken(\r\n        address router,\r\n        address token,\r\n        uint256 amount\r\n    ) internal {\r\n        path = new address[](2);\r\n        path[0] = IUniswapV2Router01(router).WETH();\r\n        path[1] = token;\r\n\r\n        IUniswapV2Router02(router)\r\n            .swapExactETHForTokensSupportingFeeOnTransferTokens{value: amount}(\r\n            0,\r\n            path,\r\n            address(this),\r\n            block.timestamp + 300 seconds\r\n        );\r\n    }\r\n\r\n    function swapTokenToEth(\r\n        address router,\r\n        address token,\r\n        uint256 amount\r\n    ) internal {\r\n        path = new address[](2);\r\n        path[0] = token;\r\n        path[1] = IUniswapV2Router01(router).WETH();\r\n\r\n        IUniswapV2Router02(router)\r\n            .swapExactTokensForETHSupportingFeeOnTransferTokens(\r\n                amount,\r\n                0,\r\n                path,\r\n                address(this),\r\n                block.timestamp + 300 seconds\r\n            );\r\n    }\r\n\r\n    function WithdrawTokens(address _tokenAddress, uint256 amount)\r\n        external\r\n        onlyRole(Admin_ROLE)\r\n    {\r\n        IERC20(_tokenAddress).transfer(msg.sender, amount);\r\n    }\r\n\r\n    function WithdrawContractFunds(uint256 amount)\r\n        external\r\n        onlyRole(Admin_ROLE)\r\n    {\r\n        payable(msg.sender).transfer(amount);\r\n    }\r\n\r\n    receive() external payable {}\r\n}\r\n",
  "sourcePath": "D:\\ArbiBOT\\contracts\\ARbitrageR2.sol",
  "compiler": {
    "name": "solc",
    "version": "0.8.10+commit.fc410830.Emscripten.clang"
  },
  "schemaVersion": "3.4.11",
  "updatedAt": "2023-02-18T12:46:19.038Z",
  "networkType": "ethereum",
  "devdoc": {
    "kind": "dev",
    "methods": {
      "executeOperation(address,uint256,uint256,address,bytes)": {
        "details": "Ensure that the contract can return the debt + premium, e.g., has      enough funds to repay and has approved the Pool to pull the total amount",
        "params": {
          "amount": "The amount of the flash-borrowed asset",
          "asset": "The address of the flash-borrowed asset",
          "initiator": "The address of the flashloan initiator",
          "params": "The byte-encoded params passed when initiating the flashloan",
          "premium": "The fee of the flash-borrowed asset"
        },
        "returns": {
          "_0": "True if the execution of the operation succeeds, false otherwise"
        }
      },
      "getRoleAdmin(bytes32)": {
        "details": "Returns the admin role that controls `role`. See {grantRole} and {revokeRole}. To change a role's admin, use {_setRoleAdmin}."
      },
      "grantRole(bytes32,address)": {
        "details": "Grants `role` to `account`. If `account` had not been already granted `role`, emits a {RoleGranted} event. Requirements: - the caller must have ``role``'s admin role."
      },
      "hasRole(bytes32,address)": {
        "details": "Returns `true` if `account` has been granted `role`."
      },
      "renounceRole(bytes32,address)": {
        "details": "Revokes `role` from the calling account. Roles are often managed via {grantRole} and {revokeRole}: this function's purpose is to provide a mechanism for accounts to lose their privileges if they are compromised (such as when a trusted device is misplaced). If the calling account had been revoked `role`, emits a {RoleRevoked} event. Requirements: - the caller must be `account`."
      },
      "revokeRole(bytes32,address)": {
        "details": "Revokes `role` from `account`. If `account` had been granted `role`, emits a {RoleRevoked} event. Requirements: - the caller must have ``role``'s admin role."
      },
      "supportsInterface(bytes4)": {
        "details": "See {IERC165-supportsInterface}."
      }
    },
    "version": 1
  },
  "userdoc": {
    "kind": "user",
    "methods": {
      "executeOperation(address,uint256,uint256,address,bytes)": {
        "notice": "Executes an operation after receiving the flash-borrowed asset"
      }
    },
    "version": 1
  }
}